:0300000002001EDD
:10001B0002017178307F10760008DFFB7581607507
:10002B003800755000D201758911758C63758AC0C3
:10003B00758DD8758BF0D2A7C297C292D2AFD2ABC7
:10004B00D2BB7C1991CA9005BC75370F75362075DC
:10005B0035267534017533067554007553007A10C7
:10006B007B008B518A52753F00755B001200F17F4C
:10007B008512011DF5327F84E532547FFE1201316A
:10008B001200FDE538B4000411A380031200C791E0
:10009B00F571D631D702008E7F8112011DF5307FAD
:1000AB008312011DF5317F8512011DF5327F8712F9
:1000BB00011DF5347F8D12011DF535221200F17FE4
:1000CB0080AE301201317F82AE311201317F84AEAE
:1000DB00321201317F86AE341201317F8CAE351274
:1000EB0001311200FD22C292C2977F8E7E00120157
:1000FB003122C292C2977F8E7E8012013122C0F0D4
:10010B00F5F0540FFAE5F0C4540F75F00AA42AD099
:10011B00F022C292C297D292EF120144D2A71201DF
:10012B0054C297C29222C292C297D292EF1201444A
:10013B00EE120144C297C29222C0E07F08C297130D
:10014B0092A7D297DFF7D0E022C0F07E0875F000BF
:04015B00D297000037
:10015F00C2970000A2A7E5F013F5F0DEEFE5F0D0AF
:10016F00F022C0E0C0D0C000C005C006C007C0F07C
:10017F00758DD8758BF0E550B4011AE5532401F550
:10018F00F0D4F553E5F0B49A30755300E5542401DB
:10019F00D4F5548024E5512499D4F55150028009A7
:1001AF00E5522499D4F5528000AD51AE52BE0009EC
:1001BF00BD0006C28EC2A38000D0F0D007D006D0FB
:1001CF0005D000D0D0D0E0321537E5377013753732
:1001DF0003E538B4010BE493F58091B97580209154
:1001EF00E4A2B140417814B1AFD8FCA2B14037A21C
:1001FF00B150FCE550B400129005BC053875F00203
:10020F00E5388485F038B28C801CB4010875530032
:10021F0075540080119005BCA3053875F002E538C0
:10022F008485F0388000A2B2403B7814B1AFD8FC7F
:10023F00A2B24031A2B250FCE538B4010DE550B482
:10024F000004713D801F7122801B75F003E53F8410
:10025F0085F03FE5F025E0243AF8E554F618E5532C
:10026F00F6E53F053FA2B3401D7814B1AFA2B3D856
:10027F00FA4013A2B350FC30A304B28E8008D2A36D
:02028F008B5191
:100291008A528000A2B4403B7814B1AFA2B4D8FA1C
:1002A1004031A2B450FCE550B4000AE493B4806F2D
:1002B1009005BC806BB4020BE493B4C3629005BC9F
:1002C100A3805D75800191B9055B75F004E55B84E0
:1002D10085F05BA2B540497814B1AFA2B5D8FA4018
:1002E1003FA2B550FC75800191B9753800D28C756B
:1002F10054007553008B518A52C28E758DD8758BFF
:10030100F0D2A3055075F003E5508485F050753F98
:1003110000755B0078397F07760008DFFB8001A359
:1003210022E493B4C607E5512401D4F551B4C307BF
:10033100E5522401D4F552AB51AA5222E493B4C937
:100341000DE5302401D4F530B4600D753000B4C62C
:100351000FE5312401D4F531B46079753100807431
:10036100B4C30FE5322401D4F532B42467753200E9
:100371008062B48941E5332401D4F533E534048343
:10038100801231283130313031313000000000002D
:1003910000313031C39533503BE534B40213E535B8
:1003A100541330E402240254037006E533642960D7
:1003B10023753301801EB4860FE5342401D4F5344E
:1003C100B41311753401800CB48309E5352401D4CB
:0A03D100F535800022E550B4006B02
:1003DB0078360875808091B99197919775802D919A
:1003EB00E4919775802D91E49197C083C08290051D
:1003FB00C5E4E55675F003A42582F582E5F0358357
:10040B00F583E49375808C91B9F58091E4E4A39323
:10041B00F58091E4E4A393F58091E475802D91E44C
:10042B00D082D0837580C291B9919775802D91E45C
:10043B00919775802D91E491978050B4013CE55BC9
:10044B00B400137854087580C291B9919775802DBB
:10045B0091E4919780351425E0243AF8087580C211
:10046B0091B9919775802D91E491977580C991B948
:10047B00E55B2430F58091E480117852087580C2D9
:10048B0091B9919775802D91E491972218E675F0AB
:10049B0010842430F58091E4E5F02430F58091E46C
:1004AB0022C290D291D2A5A287C2A540F82291ACCC
:1004BB00C290C291C2A5B1AFD2A5B1AFC2A52275F0
:1004CB00800191B975800691B975800C91B97580D1
:1004DB003891B975808091B92291ACD290C291C2FA
:1004EB00A5B1AFD2A5B1AFC2A522E53575F0108489
:0D04FB0085F05775F00AA42557F557E53632
:1005080075F0108485F05875F00AA42558F558E55B
:100518003475F0108485F05975F00AA42559F559F9
:10052800E53375F0108485F05A75F00AA4255AF55C
:100538005AE559B4011275590DE5576004155780ED
:100548001A75576315588013B4021075590EE5577C
:100558006004155780057557631558E5590475F0FB
:100568000DA475F00584F55CE557F55D75F0048418
:10057800255DF55EE55875F00484F55FE55825E0DE
:10058800F404255FF555E55A255C255E255530E7C9
:1005980005240720E7FB75F00784E5F0B400047430
:1005A80006800114F556227F027E017DF9DDFEDE0C
:1005B800FADFF622C9C6C389868382818053554EE5
:1005C8004D4F4E5455455745445448554652495346
:0205D80041548C
:00000001FF
