:0300000002001EDD
:10001B0002017F78307F10760008DFFB75816075F9
:10002B003800755000D201758911758C63758AC0C3
:10003B00758DD8758BF0D2A7C297C292D2AFD2ABC7
:10004B00D2BB7C1991D89005CA75370F75362075C0
:10005B0035267534017533067554007553007A10C7
:10006B007B008B518A52753F00755B001200FF7F3E
:10007B008512012BF5327F84E532547FFE12013F4E
:10008B0012010BE538B4000411A380031200CEB1AA
:10009B000371E431E502008E7F8112012BF5307F75
:1000AB008312012BF5317F8512012BF5327F8912DB
:1000BB00012BF5347F8712012BF5337F8D12012B2A
:1000CB00F535221200FF7F80AE3012013F7F82AEEA
:1000DB003112013F7F84AE3212013F7F88AE341262
:1000EB00013F7F86AE3312013F7F8CAE3512013F4D
:1000FB0012010B22C292C2977F8E7E0012013F2209
:10010B00C292C2977F8E7E8012013F22C0F0F5F023
:10011B00540FFAE5F0C4540F75F00AA42AD0F0225C
:10012B00C292C297D292EF120152D2A7120162C2AF
:10013B0097C29222C292C297D292EF120152EE1242
:10014B000152C297C29222C0E07F08C2971392A7B6
:07015B00D297DFF7D0E0228C
:10016200C0F07E0875F000D2970000C2970000A28E
:10017200A7E5F013F5F0DEEFE5F0D0F022C0E0C025
:10018200D0C000C005C006C007C0F0758DD8758B01
:10019200F0E550B4011AE5532401F5F0D4F553E526
:1001A200F0B49A30755300E5542401D4F5548024F8
:1001B200E5512499D4F55150028009E5522499D48D
:1001C200F5528000AD51AE52BE0009BD0006C28E8E
:1001D200C2A38000D0F0D007D006D005D000D0D086
:1001E200D0E0321537E5377013753703E538B401BF
:1001F2000BE493F58091C775802091F2A2B1404142
:100202007814B1BDD8FCA2B14037A2B150FCE55080
:10021200B400129005CA053875F002E5388485F0FD
:1002220038B28C801CB401087553007554008011DB
:100232009005CAA3053875F002E5388485F0388048
:1002420000A2B2403B7814B1BDD8FCA2B24031A2A8
:10025200B250FCE538B4010DE550B40004714B8096
:100262001F7130801B75F003E53F8485F03FE5F098
:1002720025E0243AF8E554F618E553F6E53F053F44
:10028200A2B3401D7814B1BDA2B3D8FA4013A2B3F1
:1002920050FC30A304B28E8008D2A38B518A5280C4
:1002A20000A2B4403B7814B1BDA2B4D8FA4031A246
:1002B200B450FCE550B4000AE493B4806F9005CAD0
:1002C200806BB4020BE493B4C3629005CAA3805D51
:1002D20075800191C7055B75F004E55B8485F05B71
:1002E200A2B540497814B1BDA2B5D8FA403FA2B533
:1002F20050FC75800191C7753800D28C7554007519
:1003020053008B518A52C28E758DD8758BF0D2A351
:10031200055075F003E5508485F050753F00755B1C
:100322000078397F07760008DFFB8001A322E4937F
:10033200B4C607E5512401D4F551B4C307E55224EC
:1003420001D4F552AB51AA5222E493B4C90DE5305F
:100352002401D4F530B4600D753000B4C60FE53118
:100362002401D4F531B460797531008074B4C30FBF
:10037200E5322401D4F532B424677532008062B4C8
:100382008941E5332401D4F533E534048380123105
:10039200283130313031313000000000000031307E
:1003A20031C39533503BE534B40213E53554133071
:1003B200E402240254037006E53364296023753392
:1003C20001801EB4860FE5342401D4F534B4131130
:0C03D200753401800CB48309E53524016A
:1003DE00D4F535800022E550B4006B783608758070
:1003EE008091C791A591A575802D91F291A57580EB
:1003FE002D91F291A5C083C0829005D3E4E5567588
:10040E00F003A42582F582E5F03583F583E4937538
:10041E00808C91C7F58091F2E4A393F58091F2E47C
:10042E00A393F58091F275802D91F2D082D08375D1
:10043E0080C291C791A575802D91F291A575802DE1
:10044E0091F291A58050B4013CE55BB40013785451
:10045E00087580C291C791A575802D91F291A580E6
:10046E00351425E0243AF8087580C291C791A57518
:10047E00802D91F291A57580C991C7E55B2430F569
:10048E008091F280117852087580C291C791A5753E
:10049E00802D91F291A52218E675F010842430F586
:1004AE008091F2E5F02430F58091F222C290D29143
:1004BE00D2A5A287C2A540F82291BAC290C291C21B
:1004CE00A5B1BDD2A5B1BDC2A52275800191C775DA
:1004DE00800691C775800C91C775803891C775805D
:1004EE008091C72291BAD290C291C2A5B1BDD2A5B8
:0B04FE00B1BDC2A522E53575F01084E9
:1005090085F05775F00AA42557F557E53675F010AB
:100519008485F05875F00AA42558F558E53475F026
:10052900108485F05975F00AA42559F559E53375F4
:10053900F0108485F05A75F00AA4255AF55AE55940
:10054900B4011275590DE55760041557801A75578E
:100559006315588013B4021075590EE557600415D8
:100569005780057557631558E5590475F00DA4753D
:10057900F00584F55CE557F55D75F00484255DF5B6
:100589005EE55875F00484F55FE55825E0F4042527
:100599005FF555E55A255C255E255530E7052407A5
:1005A90020E7FB75F00784E5F0B4000474068001C8
:1005B90014F556227F027E017DF9DDFEDEFADFF6B3
:1005C90022C9C6C389868382818053554E4D4F4EB9
:0F05D9005455455745445448554652495341548B
:00000001FF
